{
  "contractName": "ColorTokenERC721",
  "abi": [
    {
      "inputs": [
        {
          "internalType": "string",
          "name": "name_",
          "type": "string"
        },
        {
          "internalType": "string",
          "name": "symbol_",
          "type": "string"
        }
      ],
      "stateMutability": "nonpayable",
      "type": "constructor"
    },
    {
      "anonymous": false,
      "inputs": [
        {
          "indexed": true,
          "internalType": "address",
          "name": "owner",
          "type": "address"
        },
        {
          "indexed": true,
          "internalType": "address",
          "name": "approved",
          "type": "address"
        },
        {
          "indexed": true,
          "internalType": "uint256",
          "name": "tokenId",
          "type": "uint256"
        }
      ],
      "name": "Approval",
      "type": "event"
    },
    {
      "anonymous": false,
      "inputs": [
        {
          "indexed": true,
          "internalType": "address",
          "name": "owner",
          "type": "address"
        },
        {
          "indexed": true,
          "internalType": "address",
          "name": "operator",
          "type": "address"
        },
        {
          "indexed": false,
          "internalType": "bool",
          "name": "approved",
          "type": "bool"
        }
      ],
      "name": "ApprovalForAll",
      "type": "event"
    },
    {
      "anonymous": false,
      "inputs": [
        {
          "indexed": true,
          "internalType": "address",
          "name": "previousOwner",
          "type": "address"
        },
        {
          "indexed": true,
          "internalType": "address",
          "name": "newOwner",
          "type": "address"
        }
      ],
      "name": "OwnershipTransferred",
      "type": "event"
    },
    {
      "anonymous": false,
      "inputs": [
        {
          "indexed": false,
          "internalType": "address",
          "name": "account",
          "type": "address"
        }
      ],
      "name": "Paused",
      "type": "event"
    },
    {
      "anonymous": false,
      "inputs": [
        {
          "indexed": true,
          "internalType": "address",
          "name": "from",
          "type": "address"
        },
        {
          "indexed": true,
          "internalType": "address",
          "name": "to",
          "type": "address"
        },
        {
          "indexed": true,
          "internalType": "uint256",
          "name": "tokenId",
          "type": "uint256"
        }
      ],
      "name": "Transfer",
      "type": "event"
    },
    {
      "anonymous": false,
      "inputs": [
        {
          "indexed": false,
          "internalType": "address",
          "name": "account",
          "type": "address"
        }
      ],
      "name": "Unpaused",
      "type": "event"
    },
    {
      "inputs": [
        {
          "internalType": "address",
          "name": "to",
          "type": "address"
        },
        {
          "internalType": "uint256",
          "name": "tokenId",
          "type": "uint256"
        }
      ],
      "name": "approve",
      "outputs": [],
      "stateMutability": "nonpayable",
      "type": "function"
    },
    {
      "inputs": [
        {
          "internalType": "address",
          "name": "owner",
          "type": "address"
        }
      ],
      "name": "balanceOf",
      "outputs": [
        {
          "internalType": "uint256",
          "name": "",
          "type": "uint256"
        }
      ],
      "stateMutability": "view",
      "type": "function"
    },
    {
      "inputs": [
        {
          "internalType": "uint256",
          "name": "tokenId",
          "type": "uint256"
        }
      ],
      "name": "burn",
      "outputs": [],
      "stateMutability": "nonpayable",
      "type": "function"
    },
    {
      "inputs": [
        {
          "internalType": "uint256",
          "name": "tokenId",
          "type": "uint256"
        }
      ],
      "name": "getApproved",
      "outputs": [
        {
          "internalType": "address",
          "name": "",
          "type": "address"
        }
      ],
      "stateMutability": "view",
      "type": "function"
    },
    {
      "inputs": [
        {
          "internalType": "address",
          "name": "owner",
          "type": "address"
        },
        {
          "internalType": "address",
          "name": "operator",
          "type": "address"
        }
      ],
      "name": "isApprovedForAll",
      "outputs": [
        {
          "internalType": "bool",
          "name": "",
          "type": "bool"
        }
      ],
      "stateMutability": "view",
      "type": "function"
    },
    {
      "inputs": [],
      "name": "name",
      "outputs": [
        {
          "internalType": "string",
          "name": "",
          "type": "string"
        }
      ],
      "stateMutability": "view",
      "type": "function"
    },
    {
      "inputs": [],
      "name": "owner",
      "outputs": [
        {
          "internalType": "address",
          "name": "",
          "type": "address"
        }
      ],
      "stateMutability": "view",
      "type": "function"
    },
    {
      "inputs": [
        {
          "internalType": "uint256",
          "name": "tokenId",
          "type": "uint256"
        }
      ],
      "name": "ownerOf",
      "outputs": [
        {
          "internalType": "address",
          "name": "",
          "type": "address"
        }
      ],
      "stateMutability": "view",
      "type": "function"
    },
    {
      "inputs": [],
      "name": "paused",
      "outputs": [
        {
          "internalType": "bool",
          "name": "",
          "type": "bool"
        }
      ],
      "stateMutability": "view",
      "type": "function"
    },
    {
      "inputs": [],
      "name": "renounceOwnership",
      "outputs": [],
      "stateMutability": "nonpayable",
      "type": "function"
    },
    {
      "inputs": [
        {
          "internalType": "address",
          "name": "from",
          "type": "address"
        },
        {
          "internalType": "address",
          "name": "to",
          "type": "address"
        },
        {
          "internalType": "uint256",
          "name": "tokenId",
          "type": "uint256"
        }
      ],
      "name": "safeTransferFrom",
      "outputs": [],
      "stateMutability": "nonpayable",
      "type": "function"
    },
    {
      "inputs": [
        {
          "internalType": "address",
          "name": "from",
          "type": "address"
        },
        {
          "internalType": "address",
          "name": "to",
          "type": "address"
        },
        {
          "internalType": "uint256",
          "name": "tokenId",
          "type": "uint256"
        },
        {
          "internalType": "bytes",
          "name": "_data",
          "type": "bytes"
        }
      ],
      "name": "safeTransferFrom",
      "outputs": [],
      "stateMutability": "nonpayable",
      "type": "function"
    },
    {
      "inputs": [
        {
          "internalType": "address",
          "name": "operator",
          "type": "address"
        },
        {
          "internalType": "bool",
          "name": "approved",
          "type": "bool"
        }
      ],
      "name": "setApprovalForAll",
      "outputs": [],
      "stateMutability": "nonpayable",
      "type": "function"
    },
    {
      "inputs": [],
      "name": "symbol",
      "outputs": [
        {
          "internalType": "string",
          "name": "",
          "type": "string"
        }
      ],
      "stateMutability": "view",
      "type": "function"
    },
    {
      "inputs": [
        {
          "internalType": "uint256",
          "name": "index",
          "type": "uint256"
        }
      ],
      "name": "tokenByIndex",
      "outputs": [
        {
          "internalType": "uint256",
          "name": "",
          "type": "uint256"
        }
      ],
      "stateMutability": "view",
      "type": "function"
    },
    {
      "inputs": [
        {
          "internalType": "address",
          "name": "owner",
          "type": "address"
        },
        {
          "internalType": "uint256",
          "name": "index",
          "type": "uint256"
        }
      ],
      "name": "tokenOfOwnerByIndex",
      "outputs": [
        {
          "internalType": "uint256",
          "name": "",
          "type": "uint256"
        }
      ],
      "stateMutability": "view",
      "type": "function"
    },
    {
      "inputs": [
        {
          "internalType": "uint256",
          "name": "tokenId",
          "type": "uint256"
        }
      ],
      "name": "tokenURI",
      "outputs": [
        {
          "internalType": "string",
          "name": "",
          "type": "string"
        }
      ],
      "stateMutability": "view",
      "type": "function"
    },
    {
      "inputs": [],
      "name": "totalSupply",
      "outputs": [
        {
          "internalType": "uint256",
          "name": "",
          "type": "uint256"
        }
      ],
      "stateMutability": "view",
      "type": "function"
    },
    {
      "inputs": [
        {
          "internalType": "address",
          "name": "from",
          "type": "address"
        },
        {
          "internalType": "address",
          "name": "to",
          "type": "address"
        },
        {
          "internalType": "uint256",
          "name": "tokenId",
          "type": "uint256"
        }
      ],
      "name": "transferFrom",
      "outputs": [],
      "stateMutability": "nonpayable",
      "type": "function"
    },
    {
      "inputs": [
        {
          "internalType": "address",
          "name": "newOwner",
          "type": "address"
        }
      ],
      "name": "transferOwnership",
      "outputs": [],
      "stateMutability": "nonpayable",
      "type": "function"
    },
    {
      "inputs": [],
      "name": "pause",
      "outputs": [],
      "stateMutability": "nonpayable",
      "type": "function"
    },
    {
      "inputs": [],
      "name": "unpause",
      "outputs": [],
      "stateMutability": "nonpayable",
      "type": "function"
    },
    {
      "inputs": [
        {
          "internalType": "address",
          "name": "to",
          "type": "address"
        },
        {
          "internalType": "uint256",
          "name": "tokenId",
          "type": "uint256"
        }
      ],
      "name": "safeMint",
      "outputs": [],
      "stateMutability": "nonpayable",
      "type": "function"
    },
    {
      "inputs": [
        {
          "internalType": "bytes4",
          "name": "interfaceId",
          "type": "bytes4"
        }
      ],
      "name": "supportsInterface",
      "outputs": [
        {
          "internalType": "bool",
          "name": "",
          "type": "bool"
        }
      ],
      "stateMutability": "view",
      "type": "function"
    }
  ],
  "bytecode": "0x60806040523480156200001157600080fd5b5060405162003e8038038062003e808339818101604052810190620000379190620002a0565b81818160009080519060200190620000519291906200017e565b5080600190805190602001906200006a9291906200017e565b5050506000600a60006101000a81548160ff021916908315150217905550620000a86200009c620000b060201b60201c565b620000b860201b60201c565b505062000483565b600033905090565b6000600a60019054906101000a900473ffffffffffffffffffffffffffffffffffffffff16905081600a60016101000a81548173ffffffffffffffffffffffffffffffffffffffff021916908373ffffffffffffffffffffffffffffffffffffffff1602179055508173ffffffffffffffffffffffffffffffffffffffff168173ffffffffffffffffffffffffffffffffffffffff167f8be0079c531659141344cd1fd0a4f28419497f9722a3daafe3b4186f6b6457e060405160405180910390a35050565b8280546200018c90620003a8565b90600052602060002090601f016020900481019282620001b05760008555620001fc565b82601f10620001cb57805160ff1916838001178555620001fc565b82800160010185558215620001fc579182015b82811115620001fb578251825591602001919060010190620001de565b5b5090506200020b91906200020f565b5090565b5b808211156200022a57600081600090555060010162000210565b5090565b6000620002456200023f846200033c565b62000313565b9050828152602081018484840111156200025e57600080fd5b6200026b84828562000372565b509392505050565b600082601f8301126200028557600080fd5b8151620002978482602086016200022e565b91505092915050565b60008060408385031215620002b457600080fd5b600083015167ffffffffffffffff811115620002cf57600080fd5b620002dd8582860162000273565b925050602083015167ffffffffffffffff811115620002fb57600080fd5b620003098582860162000273565b9150509250929050565b60006200031f62000332565b90506200032d8282620003de565b919050565b6000604051905090565b600067ffffffffffffffff8211156200035a576200035962000443565b5b620003658262000472565b9050602081019050919050565b60005b838110156200039257808201518184015260208101905062000375565b83811115620003a2576000848401525b50505050565b60006002820490506001821680620003c157607f821691505b60208210811415620003d857620003d762000414565b5b50919050565b620003e98262000472565b810181811067ffffffffffffffff821117156200040b576200040a62000443565b5b80604052505050565b7f4e487b7100000000000000000000000000000000000000000000000000000000600052602260045260246000fd5b7f4e487b7100000000000000000000000000000000000000000000000000000000600052604160045260246000fd5b6000601f19601f8301169050919050565b6139ed80620004936000396000f3fe608060405234801561001057600080fd5b50600436106101585760003560e01c80636352211e116100c3578063a14481941161007c578063a1448194146103a1578063a22cb465146103bd578063b88d4fde146103d9578063c87b56dd146103f5578063e985e9c514610425578063f2fde38b1461045557610158565b80636352211e146102f157806370a0823114610321578063715018a6146103515780638456cb591461035b5780638da5cb5b1461036557806395d89b411461038357610158565b80632f745c59116101155780632f745c59146102315780633f4ba83a1461026157806342842e0e1461026b57806342966c68146102875780634f6ccce7146102a35780635c975abb146102d357610158565b806301ffc9a71461015d57806306fdde031461018d578063081812fc146101ab578063095ea7b3146101db57806318160ddd146101f757806323b872dd14610215575b600080fd5b61017760048036038101906101729190612863565b610471565b6040516101849190612d18565b60405180910390f35b610195610483565b6040516101a29190612d33565b60405180910390f35b6101c560048036038101906101c091906128b5565b610515565b6040516101d29190612cb1565b60405180910390f35b6101f560048036038101906101f09190612827565b61059a565b005b6101ff6106b2565b60405161020c9190612ff5565b60405180910390f35b61022f600480360381019061022a9190612721565b6106bf565b005b61024b60048036038101906102469190612827565b61071f565b6040516102589190612ff5565b60405180910390f35b6102696107c4565b005b61028560048036038101906102809190612721565b61084a565b005b6102a1600480360381019061029c91906128b5565b61086a565b005b6102bd60048036038101906102b891906128b5565b6108c6565b6040516102ca9190612ff5565b60405180910390f35b6102db61095d565b6040516102e89190612d18565b60405180910390f35b61030b600480360381019061030691906128b5565b610974565b6040516103189190612cb1565b60405180910390f35b61033b600480360381019061033691906126bc565b610a26565b6040516103489190612ff5565b60405180910390f35b610359610ade565b005b610363610b66565b005b61036d610bec565b60405161037a9190612cb1565b60405180910390f35b61038b610c16565b6040516103989190612d33565b60405180910390f35b6103bb60048036038101906103b69190612827565b610ca8565b005b6103d760048036038101906103d291906127eb565b610d32565b005b6103f360048036038101906103ee9190612770565b610d48565b005b61040f600480360381019061040a91906128b5565b610daa565b60405161041c9190612d33565b60405180910390f35b61043f600480360381019061043a91906126e5565b610e51565b60405161044c9190612d18565b60405180910390f35b61046f600480360381019061046a91906126bc565b610ee5565b005b600061047c82610fdd565b9050919050565b6060600080546104929061321a565b80601f01602080910402602001604051908101604052809291908181526020018280546104be9061321a565b801561050b5780601f106104e05761010080835404028352916020019161050b565b820191906000526020600020905b8154815290600101906020018083116104ee57829003601f168201915b5050505050905090565b600061052082611057565b61055f576040517f08c379a000000000000000000000000000000000000000000000000000000000815260040161055690612f15565b60405180910390fd5b6004600083815260200190815260200160002060009054906101000a900473ffffffffffffffffffffffffffffffffffffffff169050919050565b60006105a582610974565b90508073ffffffffffffffffffffffffffffffffffffffff168373ffffffffffffffffffffffffffffffffffffffff161415610616576040517f08c379a000000000000000000000000000000000000000000000000000000000815260040161060d90612f75565b60405180910390fd5b8073ffffffffffffffffffffffffffffffffffffffff166106356110c3565b73ffffffffffffffffffffffffffffffffffffffff16148061066457506106638161065e6110c3565b610e51565b5b6106a3576040517f08c379a000000000000000000000000000000000000000000000000000000000815260040161069a90612e95565b60405180910390fd5b6106ad83836110cb565b505050565b6000600880549050905090565b6106d06106ca6110c3565b82611184565b61070f576040517f08c379a000000000000000000000000000000000000000000000000000000000815260040161070690612f95565b60405180910390fd5b61071a838383611262565b505050565b600061072a83610a26565b821061076b576040517f08c379a000000000000000000000000000000000000000000000000000000000815260040161076290612d75565b60405180910390fd5b600660008473ffffffffffffffffffffffffffffffffffffffff1673ffffffffffffffffffffffffffffffffffffffff168152602001908152602001600020600083815260200190815260200160002054905092915050565b6107cc6110c3565b73ffffffffffffffffffffffffffffffffffffffff166107ea610bec565b73ffffffffffffffffffffffffffffffffffffffff1614610840576040517f08c379a000000000000000000000000000000000000000000000000000000000815260040161083790612f35565b60405180910390fd5b6108486114c9565b565b61086583838360405180602001604052806000815250610d48565b505050565b61087b6108756110c3565b82611184565b6108ba576040517f08c379a00000000000000000000000000000000000000000000000000000000081526004016108b190612fd5565b60405180910390fd5b6108c38161156b565b50565b60006108d06106b2565b8210610911576040517f08c379a000000000000000000000000000000000000000000000000000000000815260040161090890612fb5565b60405180910390fd5b6008828154811061094b577f4e487b7100000000000000000000000000000000000000000000000000000000600052603260045260246000fd5b90600052602060002001549050919050565b6000600a60009054906101000a900460ff16905090565b6000806002600084815260200190815260200160002060009054906101000a900473ffffffffffffffffffffffffffffffffffffffff169050600073ffffffffffffffffffffffffffffffffffffffff168173ffffffffffffffffffffffffffffffffffffffff161415610a1d576040517f08c379a0000000000000000000000000000000000000000000000000000000008152600401610a1490612ed5565b60405180910390fd5b80915050919050565b60008073ffffffffffffffffffffffffffffffffffffffff168273ffffffffffffffffffffffffffffffffffffffff161415610a97576040517f08c379a0000000000000000000000000000000000000000000000000000000008152600401610a8e90612eb5565b60405180910390fd5b600360008373ffffffffffffffffffffffffffffffffffffffff1673ffffffffffffffffffffffffffffffffffffffff168152602001908152602001600020549050919050565b610ae66110c3565b73ffffffffffffffffffffffffffffffffffffffff16610b04610bec565b73ffffffffffffffffffffffffffffffffffffffff1614610b5a576040517f08c379a0000000000000000000000000000000000000000000000000000000008152600401610b5190612f35565b60405180910390fd5b610b646000611688565b565b610b6e6110c3565b73ffffffffffffffffffffffffffffffffffffffff16610b8c610bec565b73ffffffffffffffffffffffffffffffffffffffff1614610be2576040517f08c379a0000000000000000000000000000000000000000000000000000000008152600401610bd990612f35565b60405180910390fd5b610bea61174e565b565b6000600a60019054906101000a900473ffffffffffffffffffffffffffffffffffffffff16905090565b606060018054610c259061321a565b80601f0160208091040260200160405190810160405280929190818152602001828054610c519061321a565b8015610c9e5780601f10610c7357610100808354040283529160200191610c9e565b820191906000526020600020905b815481529060010190602001808311610c8157829003601f168201915b5050505050905090565b610cb06110c3565b73ffffffffffffffffffffffffffffffffffffffff16610cce610bec565b73ffffffffffffffffffffffffffffffffffffffff1614610d24576040517f08c379a0000000000000000000000000000000000000000000000000000000008152600401610d1b90612f35565b60405180910390fd5b610d2e82826117f1565b5050565b610d44610d3d6110c3565b838361180f565b5050565b610d59610d536110c3565b83611184565b610d98576040517f08c379a0000000000000000000000000000000000000000000000000000000008152600401610d8f90612f95565b60405180910390fd5b610da48484848461197c565b50505050565b6060610db582611057565b610df4576040517f08c379a0000000000000000000000000000000000000000000000000000000008152600401610deb90612f55565b60405180910390fd5b6000610dfe6119d8565b90506000815111610e1e5760405180602001604052806000815250610e49565b80610e2884611a15565b604051602001610e39929190612c8d565b6040516020818303038152906040525b915050919050565b6000600560008473ffffffffffffffffffffffffffffffffffffffff1673ffffffffffffffffffffffffffffffffffffffff16815260200190815260200160002060008373ffffffffffffffffffffffffffffffffffffffff1673ffffffffffffffffffffffffffffffffffffffff16815260200190815260200160002060009054906101000a900460ff16905092915050565b610eed6110c3565b73ffffffffffffffffffffffffffffffffffffffff16610f0b610bec565b73ffffffffffffffffffffffffffffffffffffffff1614610f61576040517f08c379a0000000000000000000000000000000000000000000000000000000008152600401610f5890612f35565b60405180910390fd5b600073ffffffffffffffffffffffffffffffffffffffff168173ffffffffffffffffffffffffffffffffffffffff161415610fd1576040517f08c379a0000000000000000000000000000000000000000000000000000000008152600401610fc890612db5565b60405180910390fd5b610fda81611688565b50565b60007f780e9d63000000000000000000000000000000000000000000000000000000007bffffffffffffffffffffffffffffffffffffffffffffffffffffffff1916827bffffffffffffffffffffffffffffffffffffffffffffffffffffffff19161480611050575061104f82611bc2565b5b9050919050565b60008073ffffffffffffffffffffffffffffffffffffffff166002600084815260200190815260200160002060009054906101000a900473ffffffffffffffffffffffffffffffffffffffff1673ffffffffffffffffffffffffffffffffffffffff1614159050919050565b600033905090565b816004600083815260200190815260200160002060006101000a81548173ffffffffffffffffffffffffffffffffffffffff021916908373ffffffffffffffffffffffffffffffffffffffff160217905550808273ffffffffffffffffffffffffffffffffffffffff1661113e83610974565b73ffffffffffffffffffffffffffffffffffffffff167f8c5be1e5ebec7d5bd14f71427d1e84f3dd0314c0f7b2291e5b200ac8c7c3b92560405160405180910390a45050565b600061118f82611057565b6111ce576040517f08c379a00000000000000000000000000000000000000000000000000000000081526004016111c590612e55565b60405180910390fd5b60006111d983610974565b90508073ffffffffffffffffffffffffffffffffffffffff168473ffffffffffffffffffffffffffffffffffffffff16148061124857508373ffffffffffffffffffffffffffffffffffffffff1661123084610515565b73ffffffffffffffffffffffffffffffffffffffff16145b8061125957506112588185610e51565b5b91505092915050565b8273ffffffffffffffffffffffffffffffffffffffff1661128282610974565b73ffffffffffffffffffffffffffffffffffffffff16146112d8576040517f08c379a00000000000000000000000000000000000000000000000000000000081526004016112cf90612dd5565b60405180910390fd5b600073ffffffffffffffffffffffffffffffffffffffff168273ffffffffffffffffffffffffffffffffffffffff161415611348576040517f08c379a000000000000000000000000000000000000000000000000000000000815260040161133f90612e15565b60405180910390fd5b611353838383611ca4565b61135e6000826110cb565b6001600360008573ffffffffffffffffffffffffffffffffffffffff1673ffffffffffffffffffffffffffffffffffffffff16815260200190815260200160002060008282546113ae9190613130565b925050819055506001600360008473ffffffffffffffffffffffffffffffffffffffff1673ffffffffffffffffffffffffffffffffffffffff168152602001908152602001600020600082825461140591906130a9565b92505081905550816002600083815260200190815260200160002060006101000a81548173ffffffffffffffffffffffffffffffffffffffff021916908373ffffffffffffffffffffffffffffffffffffffff160217905550808273ffffffffffffffffffffffffffffffffffffffff168473ffffffffffffffffffffffffffffffffffffffff167fddf252ad1be2c89b69c2b068fc378daa952ba7f163c4a11628f55a4df523b3ef60405160405180910390a46114c4838383611cfc565b505050565b6114d161095d565b611510576040517f08c379a000000000000000000000000000000000000000000000000000000000815260040161150790612d55565b60405180910390fd5b6000600a60006101000a81548160ff0219169083151502179055507f5db9ee0a495bf2e6ff9c91a7834c1ba4fdd244a5e8aa4e537bd38aeae4b073aa6115546110c3565b6040516115619190612cb1565b60405180910390a1565b600061157682610974565b905061158481600084611ca4565b61158f6000836110cb565b6001600360008373ffffffffffffffffffffffffffffffffffffffff1673ffffffffffffffffffffffffffffffffffffffff16815260200190815260200160002060008282546115df9190613130565b925050819055506002600083815260200190815260200160002060006101000a81549073ffffffffffffffffffffffffffffffffffffffff021916905581600073ffffffffffffffffffffffffffffffffffffffff168273ffffffffffffffffffffffffffffffffffffffff167fddf252ad1be2c89b69c2b068fc378daa952ba7f163c4a11628f55a4df523b3ef60405160405180910390a461168481600084611cfc565b5050565b6000600a60019054906101000a900473ffffffffffffffffffffffffffffffffffffffff16905081600a60016101000a81548173ffffffffffffffffffffffffffffffffffffffff021916908373ffffffffffffffffffffffffffffffffffffffff1602179055508173ffffffffffffffffffffffffffffffffffffffff168173ffffffffffffffffffffffffffffffffffffffff167f8be0079c531659141344cd1fd0a4f28419497f9722a3daafe3b4186f6b6457e060405160405180910390a35050565b61175661095d565b15611796576040517f08c379a000000000000000000000000000000000000000000000000000000000815260040161178d90612e75565b60405180910390fd5b6001600a60006101000a81548160ff0219169083151502179055507f62e78cea01bee320cd4e420270b5ea74000d11b0c9f74754ebdbfc544b05a2586117da6110c3565b6040516117e79190612cb1565b60405180910390a1565b61180b828260405180602001604052806000815250611d01565b5050565b8173ffffffffffffffffffffffffffffffffffffffff168373ffffffffffffffffffffffffffffffffffffffff16141561187e576040517f08c379a000000000000000000000000000000000000000000000000000000000815260040161187590612e35565b60405180910390fd5b80600560008573ffffffffffffffffffffffffffffffffffffffff1673ffffffffffffffffffffffffffffffffffffffff16815260200190815260200160002060008473ffffffffffffffffffffffffffffffffffffffff1673ffffffffffffffffffffffffffffffffffffffff16815260200190815260200160002060006101000a81548160ff0219169083151502179055508173ffffffffffffffffffffffffffffffffffffffff168373ffffffffffffffffffffffffffffffffffffffff167f17307eab39ab6107e8899845ad3d59bd9653f200f220920489ca2b5937696c318360405161196f9190612d18565b60405180910390a3505050565b611987848484611262565b61199384848484611d5c565b6119d2576040517f08c379a00000000000000000000000000000000000000000000000000000000081526004016119c990612d95565b60405180910390fd5b50505050565b60606040518060400160405280601781526020017f68747470733a2f2f7777772e676f6f676c652e636f6d2f000000000000000000815250905090565b60606000821415611a5d576040518060400160405280600181526020017f30000000000000000000000000000000000000000000000000000000000000008152509050611bbd565b600082905060005b60008214611a8f578080611a789061327d565b915050600a82611a8891906130ff565b9150611a65565b60008167ffffffffffffffff811115611ad1577f4e487b7100000000000000000000000000000000000000000000000000000000600052604160045260246000fd5b6040519080825280601f01601f191660200182016040528015611b035781602001600182028036833780820191505090505b5090505b60008514611bb657600182611b1c9190613130565b9150600a85611b2b91906132c6565b6030611b3791906130a9565b60f81b818381518110611b73577f4e487b7100000000000000000000000000000000000000000000000000000000600052603260045260246000fd5b60200101907effffffffffffffffffffffffffffffffffffffffffffffffffffffffffffff1916908160001a905350600a85611baf91906130ff565b9450611b07565b8093505050505b919050565b60007f80ac58cd000000000000000000000000000000000000000000000000000000007bffffffffffffffffffffffffffffffffffffffffffffffffffffffff1916827bffffffffffffffffffffffffffffffffffffffffffffffffffffffff19161480611c8d57507f5b5e139f000000000000000000000000000000000000000000000000000000007bffffffffffffffffffffffffffffffffffffffffffffffffffffffff1916827bffffffffffffffffffffffffffffffffffffffffffffffffffffffff1916145b80611c9d5750611c9c82611ef3565b5b9050919050565b611cac61095d565b15611cec576040517f08c379a0000000000000000000000000000000000000000000000000000000008152600401611ce390612e75565b60405180910390fd5b611cf7838383611f5d565b505050565b505050565b611d0b8383612071565b611d186000848484611d5c565b611d57576040517f08c379a0000000000000000000000000000000000000000000000000000000008152600401611d4e90612d95565b60405180910390fd5b505050565b6000611d7d8473ffffffffffffffffffffffffffffffffffffffff1661224b565b15611ee6578373ffffffffffffffffffffffffffffffffffffffff1663150b7a02611da66110c3565b8786866040518563ffffffff1660e01b8152600401611dc89493929190612ccc565b602060405180830381600087803b158015611de257600080fd5b505af1925050508015611e1357506040513d601f19601f82011682018060405250810190611e10919061288c565b60015b611e96573d8060008114611e43576040519150601f19603f3d011682016040523d82523d6000602084013e611e48565b606091505b50600081511415611e8e576040517f08c379a0000000000000000000000000000000000000000000000000000000008152600401611e8590612d95565b60405180910390fd5b805181602001fd5b63150b7a0260e01b7bffffffffffffffffffffffffffffffffffffffffffffffffffffffff1916817bffffffffffffffffffffffffffffffffffffffffffffffffffffffff191614915050611eeb565b600190505b949350505050565b60007f01ffc9a7000000000000000000000000000000000000000000000000000000007bffffffffffffffffffffffffffffffffffffffffffffffffffffffff1916827bffffffffffffffffffffffffffffffffffffffffffffffffffffffff1916149050919050565b611f6883838361226e565b600073ffffffffffffffffffffffffffffffffffffffff168373ffffffffffffffffffffffffffffffffffffffff161415611fab57611fa681612273565b611fea565b8173ffffffffffffffffffffffffffffffffffffffff168373ffffffffffffffffffffffffffffffffffffffff1614611fe957611fe883826122bc565b5b5b600073ffffffffffffffffffffffffffffffffffffffff168273ffffffffffffffffffffffffffffffffffffffff16141561202d5761202881612429565b61206c565b8273ffffffffffffffffffffffffffffffffffffffff168273ffffffffffffffffffffffffffffffffffffffff161461206b5761206a828261256c565b5b5b505050565b600073ffffffffffffffffffffffffffffffffffffffff168273ffffffffffffffffffffffffffffffffffffffff1614156120e1576040517f08c379a00000000000000000000000000000000000000000000000000000000081526004016120d890612ef5565b60405180910390fd5b6120ea81611057565b1561212a576040517f08c379a000000000000000000000000000000000000000000000000000000000815260040161212190612df5565b60405180910390fd5b61213660008383611ca4565b6001600360008473ffffffffffffffffffffffffffffffffffffffff1673ffffffffffffffffffffffffffffffffffffffff168152602001908152602001600020600082825461218691906130a9565b92505081905550816002600083815260200190815260200160002060006101000a81548173ffffffffffffffffffffffffffffffffffffffff021916908373ffffffffffffffffffffffffffffffffffffffff160217905550808273ffffffffffffffffffffffffffffffffffffffff16600073ffffffffffffffffffffffffffffffffffffffff167fddf252ad1be2c89b69c2b068fc378daa952ba7f163c4a11628f55a4df523b3ef60405160405180910390a461224760008383611cfc565b5050565b6000808273ffffffffffffffffffffffffffffffffffffffff163b119050919050565b505050565b6008805490506009600083815260200190815260200160002081905550600881908060018154018082558091505060019003906000526020600020016000909190919091505550565b600060016122c984610a26565b6122d39190613130565b90506000600760008481526020019081526020016000205490508181146123b8576000600660008673ffffffffffffffffffffffffffffffffffffffff1673ffffffffffffffffffffffffffffffffffffffff168152602001908152602001600020600084815260200190815260200160002054905080600660008773ffffffffffffffffffffffffffffffffffffffff1673ffffffffffffffffffffffffffffffffffffffff168152602001908152602001600020600084815260200190815260200160002081905550816007600083815260200190815260200160002081905550505b6007600084815260200190815260200160002060009055600660008573ffffffffffffffffffffffffffffffffffffffff1673ffffffffffffffffffffffffffffffffffffffff16815260200190815260200160002060008381526020019081526020016000206000905550505050565b6000600160088054905061243d9190613130565b9050600060096000848152602001908152602001600020549050600060088381548110612493577f4e487b7100000000000000000000000000000000000000000000000000000000600052603260045260246000fd5b9060005260206000200154905080600883815481106124db577f4e487b7100000000000000000000000000000000000000000000000000000000600052603260045260246000fd5b906000526020600020018190555081600960008381526020019081526020016000208190555060096000858152602001908152602001600020600090556008805480612550577f4e487b7100000000000000000000000000000000000000000000000000000000600052603160045260246000fd5b6001900381819060005260206000200160009055905550505050565b600061257783610a26565b905081600660008573ffffffffffffffffffffffffffffffffffffffff1673ffffffffffffffffffffffffffffffffffffffff168152602001908152602001600020600083815260200190815260200160002081905550806007600084815260200190815260200160002081905550505050565b60006125fe6125f984613035565b613010565b90508281526020810184848401111561261657600080fd5b6126218482856131d8565b509392505050565b6000813590506126388161395b565b92915050565b60008135905061264d81613972565b92915050565b60008135905061266281613989565b92915050565b60008151905061267781613989565b92915050565b600082601f83011261268e57600080fd5b813561269e8482602086016125eb565b91505092915050565b6000813590506126b6816139a0565b92915050565b6000602082840312156126ce57600080fd5b60006126dc84828501612629565b91505092915050565b600080604083850312156126f857600080fd5b600061270685828601612629565b925050602061271785828601612629565b9150509250929050565b60008060006060848603121561273657600080fd5b600061274486828701612629565b935050602061275586828701612629565b9250506040612766868287016126a7565b9150509250925092565b6000806000806080858703121561278657600080fd5b600061279487828801612629565b94505060206127a587828801612629565b93505060406127b6878288016126a7565b925050606085013567ffffffffffffffff8111156127d357600080fd5b6127df8782880161267d565b91505092959194509250565b600080604083850312156127fe57600080fd5b600061280c85828601612629565b925050602061281d8582860161263e565b9150509250929050565b6000806040838503121561283a57600080fd5b600061284885828601612629565b9250506020612859858286016126a7565b9150509250929050565b60006020828403121561287557600080fd5b600061288384828501612653565b91505092915050565b60006020828403121561289e57600080fd5b60006128ac84828501612668565b91505092915050565b6000602082840312156128c757600080fd5b60006128d5848285016126a7565b91505092915050565b6128e781613164565b82525050565b6128f681613176565b82525050565b600061290782613066565b612911818561307c565b93506129218185602086016131e7565b61292a816133b3565b840191505092915050565b600061294082613071565b61294a818561308d565b935061295a8185602086016131e7565b612963816133b3565b840191505092915050565b600061297982613071565b612983818561309e565b93506129938185602086016131e7565b80840191505092915050565b60006129ac60148361308d565b91506129b7826133c4565b602082019050919050565b60006129cf602b8361308d565b91506129da826133ed565b604082019050919050565b60006129f260328361308d565b91506129fd8261343c565b604082019050919050565b6000612a1560268361308d565b9150612a208261348b565b604082019050919050565b6000612a3860258361308d565b9150612a43826134da565b604082019050919050565b6000612a5b601c8361308d565b9150612a6682613529565b602082019050919050565b6000612a7e60248361308d565b9150612a8982613552565b604082019050919050565b6000612aa160198361308d565b9150612aac826135a1565b602082019050919050565b6000612ac4602c8361308d565b9150612acf826135ca565b604082019050919050565b6000612ae760108361308d565b9150612af282613619565b602082019050919050565b6000612b0a60388361308d565b9150612b1582613642565b604082019050919050565b6000612b2d602a8361308d565b9150612b3882613691565b604082019050919050565b6000612b5060298361308d565b9150612b5b826136e0565b604082019050919050565b6000612b7360208361308d565b9150612b7e8261372f565b602082019050919050565b6000612b96602c8361308d565b9150612ba182613758565b604082019050919050565b6000612bb960208361308d565b9150612bc4826137a7565b602082019050919050565b6000612bdc602f8361308d565b9150612be7826137d0565b604082019050919050565b6000612bff60218361308d565b9150612c0a8261381f565b604082019050919050565b6000612c2260318361308d565b9150612c2d8261386e565b604082019050919050565b6000612c45602c8361308d565b9150612c50826138bd565b604082019050919050565b6000612c6860308361308d565b9150612c738261390c565b604082019050919050565b612c87816131ce565b82525050565b6000612c99828561296e565b9150612ca5828461296e565b91508190509392505050565b6000602082019050612cc660008301846128de565b92915050565b6000608082019050612ce160008301876128de565b612cee60208301866128de565b612cfb6040830185612c7e565b8181036060830152612d0d81846128fc565b905095945050505050565b6000602082019050612d2d60008301846128ed565b92915050565b60006020820190508181036000830152612d4d8184612935565b905092915050565b60006020820190508181036000830152612d6e8161299f565b9050919050565b60006020820190508181036000830152612d8e816129c2565b9050919050565b60006020820190508181036000830152612dae816129e5565b9050919050565b60006020820190508181036000830152612dce81612a08565b9050919050565b60006020820190508181036000830152612dee81612a2b565b9050919050565b60006020820190508181036000830152612e0e81612a4e565b9050919050565b60006020820190508181036000830152612e2e81612a71565b9050919050565b60006020820190508181036000830152612e4e81612a94565b9050919050565b60006020820190508181036000830152612e6e81612ab7565b9050919050565b60006020820190508181036000830152612e8e81612ada565b9050919050565b60006020820190508181036000830152612eae81612afd565b9050919050565b60006020820190508181036000830152612ece81612b20565b9050919050565b60006020820190508181036000830152612eee81612b43565b9050919050565b60006020820190508181036000830152612f0e81612b66565b9050919050565b60006020820190508181036000830152612f2e81612b89565b9050919050565b60006020820190508181036000830152612f4e81612bac565b9050919050565b60006020820190508181036000830152612f6e81612bcf565b9050919050565b60006020820190508181036000830152612f8e81612bf2565b9050919050565b60006020820190508181036000830152612fae81612c15565b9050919050565b60006020820190508181036000830152612fce81612c38565b9050919050565b60006020820190508181036000830152612fee81612c5b565b9050919050565b600060208201905061300a6000830184612c7e565b92915050565b600061301a61302b565b9050613026828261324c565b919050565b6000604051905090565b600067ffffffffffffffff8211156130505761304f613384565b5b613059826133b3565b9050602081019050919050565b600081519050919050565b600081519050919050565b600082825260208201905092915050565b600082825260208201905092915050565b600081905092915050565b60006130b4826131ce565b91506130bf836131ce565b9250827fffffffffffffffffffffffffffffffffffffffffffffffffffffffffffffffff038211156130f4576130f36132f7565b5b828201905092915050565b600061310a826131ce565b9150613115836131ce565b92508261312557613124613326565b5b828204905092915050565b600061313b826131ce565b9150613146836131ce565b925082821015613159576131586132f7565b5b828203905092915050565b600061316f826131ae565b9050919050565b60008115159050919050565b60007fffffffff0000000000000000000000000000000000000000000000000000000082169050919050565b600073ffffffffffffffffffffffffffffffffffffffff82169050919050565b6000819050919050565b82818337600083830152505050565b60005b838110156132055780820151818401526020810190506131ea565b83811115613214576000848401525b50505050565b6000600282049050600182168061323257607f821691505b6020821081141561324657613245613355565b5b50919050565b613255826133b3565b810181811067ffffffffffffffff8211171561327457613273613384565b5b80604052505050565b6000613288826131ce565b91507fffffffffffffffffffffffffffffffffffffffffffffffffffffffffffffffff8214156132bb576132ba6132f7565b5b600182019050919050565b60006132d1826131ce565b91506132dc836131ce565b9250826132ec576132eb613326565b5b828206905092915050565b7f4e487b7100000000000000000000000000000000000000000000000000000000600052601160045260246000fd5b7f4e487b7100000000000000000000000000000000000000000000000000000000600052601260045260246000fd5b7f4e487b7100000000000000000000000000000000000000000000000000000000600052602260045260246000fd5b7f4e487b7100000000000000000000000000000000000000000000000000000000600052604160045260246000fd5b6000601f19601f8301169050919050565b7f5061757361626c653a206e6f7420706175736564000000000000000000000000600082015250565b7f455243373231456e756d657261626c653a206f776e657220696e646578206f7560008201527f74206f6620626f756e6473000000000000000000000000000000000000000000602082015250565b7f4552433732313a207472616e7366657220746f206e6f6e20455243373231526560008201527f63656976657220696d706c656d656e7465720000000000000000000000000000602082015250565b7f4f776e61626c653a206e6577206f776e657220697320746865207a65726f206160008201527f6464726573730000000000000000000000000000000000000000000000000000602082015250565b7f4552433732313a207472616e736665722066726f6d20696e636f72726563742060008201527f6f776e6572000000000000000000000000000000000000000000000000000000602082015250565b7f4552433732313a20746f6b656e20616c7265616479206d696e74656400000000600082015250565b7f4552433732313a207472616e7366657220746f20746865207a65726f2061646460008201527f7265737300000000000000000000000000000000000000000000000000000000602082015250565b7f4552433732313a20617070726f766520746f2063616c6c657200000000000000600082015250565b7f4552433732313a206f70657261746f7220717565727920666f72206e6f6e657860008201527f697374656e7420746f6b656e0000000000000000000000000000000000000000602082015250565b7f5061757361626c653a2070617573656400000000000000000000000000000000600082015250565b7f4552433732313a20617070726f76652063616c6c6572206973206e6f74206f7760008201527f6e6572206e6f7220617070726f76656420666f7220616c6c0000000000000000602082015250565b7f4552433732313a2062616c616e636520717565727920666f7220746865207a6560008201527f726f206164647265737300000000000000000000000000000000000000000000602082015250565b7f4552433732313a206f776e657220717565727920666f72206e6f6e657869737460008201527f656e7420746f6b656e0000000000000000000000000000000000000000000000602082015250565b7f4552433732313a206d696e7420746f20746865207a65726f2061646472657373600082015250565b7f4552433732313a20617070726f76656420717565727920666f72206e6f6e657860008201527f697374656e7420746f6b656e0000000000000000000000000000000000000000602082015250565b7f4f776e61626c653a2063616c6c6572206973206e6f7420746865206f776e6572600082015250565b7f4552433732314d657461646174613a2055524920717565727920666f72206e6f60008201527f6e6578697374656e7420746f6b656e0000000000000000000000000000000000602082015250565b7f4552433732313a20617070726f76616c20746f2063757272656e74206f776e6560008201527f7200000000000000000000000000000000000000000000000000000000000000602082015250565b7f4552433732313a207472616e736665722063616c6c6572206973206e6f74206f60008201527f776e6572206e6f7220617070726f766564000000000000000000000000000000602082015250565b7f455243373231456e756d657261626c653a20676c6f62616c20696e646578206f60008201527f7574206f6620626f756e64730000000000000000000000000000000000000000602082015250565b7f4552433732314275726e61626c653a2063616c6c6572206973206e6f74206f7760008201527f6e6572206e6f7220617070726f76656400000000000000000000000000000000602082015250565b61396481613164565b811461396f57600080fd5b50565b61397b81613176565b811461398657600080fd5b50565b61399281613182565b811461399d57600080fd5b50565b6139a9816131ce565b81146139b457600080fd5b5056fea26469706673582212204b2c7676e0d6c9d5ec855b2fbe605b3c4dc197dc0d120f5f58b5ad284e5817cb64736f6c63430008020033",
  "immutableReferences": {},
  "source": "// SPDX-License-Identifier: MIT\npragma solidity ^0.8.2;\n\nimport \"@openzeppelin/contracts/token/ERC721/ERC721.sol\";\nimport \"@openzeppelin/contracts/token/ERC721/extensions/ERC721Enumerable.sol\";\nimport \"@openzeppelin/contracts/security/Pausable.sol\";\nimport \"@openzeppelin/contracts/access/Ownable.sol\";\nimport \"@openzeppelin/contracts/token/ERC721/extensions/ERC721Burnable.sol\";\n\ncontract ColorTokenERC721 is \n    ERC721, \n    ERC721Enumerable, \n    Pausable, \n    Ownable, \n    ERC721Burnable \n    {\n    constructor(\n        string memory name_,\n        string memory symbol_\n        ) ERC721(name_, symbol_) {}\n\n    function _baseURI() internal pure override returns (string memory) {\n        return \"https://www.google.com/\";\n    }\n\n    function pause() public onlyOwner {\n        _pause();\n    }\n\n    function unpause() public onlyOwner {\n        _unpause();\n    }\n\n    function safeMint(address to, uint256 tokenId) public onlyOwner {\n        _safeMint(to, tokenId);\n    }\n\n    function _beforeTokenTransfer(address from, address to, uint256 tokenId)\n        internal\n        whenNotPaused\n        override(ERC721, ERC721Enumerable)\n    {\n        super._beforeTokenTransfer(from, to, tokenId);\n    }\n\n    // The following functions are overrides required by Solidity.\n\n    function supportsInterface(bytes4 interfaceId)\n        public\n        view\n        override(ERC721, ERC721Enumerable)\n        returns (bool)\n    {\n        return super.supportsInterface(interfaceId);\n    }\n}\n",
  "sourcePath": "/home/user/Training/vx-token/ERC721/contracts/ColorTokenERC721.sol",
  "compiler": {
    "name": "solc",
    "version": "0.8.2+commit.661d1103.Emscripten.clang"
  },
  "schemaVersion": "3.4.3",
  "updatedAt": "2022-02-11T13:59:18.690Z",
  "devdoc": {
    "kind": "dev",
    "methods": {
      "approve(address,uint256)": {
        "details": "See {IERC721-approve}."
      },
      "balanceOf(address)": {
        "details": "See {IERC721-balanceOf}."
      },
      "burn(uint256)": {
        "details": "Burns `tokenId`. See {ERC721-_burn}. Requirements: - The caller must own `tokenId` or be an approved operator."
      },
      "getApproved(uint256)": {
        "details": "See {IERC721-getApproved}."
      },
      "isApprovedForAll(address,address)": {
        "details": "See {IERC721-isApprovedForAll}."
      },
      "name()": {
        "details": "See {IERC721Metadata-name}."
      },
      "owner()": {
        "details": "Returns the address of the current owner."
      },
      "ownerOf(uint256)": {
        "details": "See {IERC721-ownerOf}."
      },
      "paused()": {
        "details": "Returns true if the contract is paused, and false otherwise."
      },
      "renounceOwnership()": {
        "details": "Leaves the contract without owner. It will not be possible to call `onlyOwner` functions anymore. Can only be called by the current owner. NOTE: Renouncing ownership will leave the contract without an owner, thereby removing any functionality that is only available to the owner."
      },
      "safeTransferFrom(address,address,uint256)": {
        "details": "See {IERC721-safeTransferFrom}."
      },
      "safeTransferFrom(address,address,uint256,bytes)": {
        "details": "See {IERC721-safeTransferFrom}."
      },
      "setApprovalForAll(address,bool)": {
        "details": "See {IERC721-setApprovalForAll}."
      },
      "symbol()": {
        "details": "See {IERC721Metadata-symbol}."
      },
      "tokenByIndex(uint256)": {
        "details": "See {IERC721Enumerable-tokenByIndex}."
      },
      "tokenOfOwnerByIndex(address,uint256)": {
        "details": "See {IERC721Enumerable-tokenOfOwnerByIndex}."
      },
      "tokenURI(uint256)": {
        "details": "See {IERC721Metadata-tokenURI}."
      },
      "totalSupply()": {
        "details": "See {IERC721Enumerable-totalSupply}."
      },
      "transferFrom(address,address,uint256)": {
        "details": "See {IERC721-transferFrom}."
      },
      "transferOwnership(address)": {
        "details": "Transfers ownership of the contract to a new account (`newOwner`). Can only be called by the current owner."
      }
    },
    "version": 1
  },
  "userdoc": {
    "kind": "user",
    "methods": {},
    "version": 1
  }
}